{"contracts/PlayGame.sol":{"PlayGame":{"abi":[{"inputs":[{"internalType":"contract IERC20","name":"gameToken_","type":"address"},{"internalType":"address","name":"apiGateway_","type":"address"}],"stateMutability":"nonpayable","type":"constructor"},{"anonymous":false,"inputs":[{"indexed":true,"internalType":"uint256","name":"matchId","type":"uint256"}],"name":"MatchCancelled","type":"event"},{"anonymous":false,"inputs":[{"indexed":true,"internalType":"uint256","name":"matchId","type":"uint256"},{"indexed":true,"internalType":"address","name":"player1","type":"address"},{"indexed":false,"internalType":"uint256","name":"stakeAmount","type":"uint256"}],"name":"MatchCreated","type":"event"},{"anonymous":false,"inputs":[{"indexed":true,"internalType":"uint256","name":"matchId","type":"uint256"},{"indexed":true,"internalType":"address","name":"player2","type":"address"}],"name":"MatchJoined","type":"event"},{"anonymous":false,"inputs":[{"indexed":true,"internalType":"uint256","name":"matchId","type":"uint256"},{"indexed":true,"internalType":"address","name":"winner","type":"address"},{"indexed":false,"internalType":"uint256","name":"payoutAmount","type":"uint256"}],"name":"MatchResolved","type":"event"},{"anonymous":false,"inputs":[{"indexed":true,"internalType":"address","name":"previousOwner","type":"address"},{"indexed":true,"internalType":"address","name":"newOwner","type":"address"}],"name":"OwnershipTransferred","type":"event"},{"inputs":[],"name":"apiGateway","outputs":[{"internalType":"address","name":"","type":"address"}],"stateMutability":"view","type":"function"},{"inputs":[{"internalType":"uint256","name":"matchId","type":"uint256"}],"name":"cancelMatch","outputs":[],"stateMutability":"nonpayable","type":"function"},{"inputs":[{"internalType":"uint256","name":"matchId","type":"uint256"},{"internalType":"uint256","name":"stakeAmount","type":"uint256"}],"name":"createMatch","outputs":[],"stateMutability":"nonpayable","type":"function"},{"inputs":[],"name":"gameToken","outputs":[{"internalType":"contract IERC20","name":"","type":"address"}],"stateMutability":"view","type":"function"},{"inputs":[{"internalType":"uint256","name":"matchId","type":"uint256"}],"name":"joinMatch","outputs":[],"stateMutability":"nonpayable","type":"function"},{"inputs":[{"internalType":"uint256","name":"","type":"uint256"}],"name":"matches","outputs":[{"internalType":"address","name":"player1","type":"address"},{"internalType":"address","name":"player2","type":"address"},{"internalType":"uint256","name":"stakeAmount","type":"uint256"},{"internalType":"enum PlayGame.MatchStatus","name":"status","type":"uint8"}],"stateMutability":"view","type":"function"},{"inputs":[],"name":"owner","outputs":[{"internalType":"address","name":"","type":"address"}],"stateMutability":"view","type":"function"},{"inputs":[],"name":"renounceOwnership","outputs":[],"stateMutability":"nonpayable","type":"function"},{"inputs":[{"internalType":"uint256","name":"matchId","type":"uint256"},{"internalType":"address","name":"winner","type":"address"}],"name":"submitResult","outputs":[],"stateMutability":"nonpayable","type":"function"},{"inputs":[{"internalType":"address","name":"newOwner","type":"address"}],"name":"transferOwnership","outputs":[],"stateMutability":"nonpayable","type":"function"}],"evm":{"bytecode":{"linkReferences":{},"object":"60c060405234801561001057600080fd5b5060405161108638038061108683398101604081905261002f91610140565b610038336100d8565b600180556001600160a01b0382166100815760405162461bcd60e51b81526020600482015260076024820152666774207a65726f60c81b60448201526064015b60405180910390fd5b6001600160a01b0381166100c15760405162461bcd60e51b81526020600482015260076024820152666777207a65726f60c81b6044820152606401610078565b6001600160a01b039182166080521660a05261017a565b600080546001600160a01b038381166001600160a01b0319831681178455604051919092169283917f8be0079c531659141344cd1fd0a4f28419497f9722a3daafe3b4186f6b6457e09190a35050565b6001600160a01b038116811461013d57600080fd5b50565b6000806040838503121561015357600080fd5b825161015e81610128565b602084015190925061016f81610128565b809150509250929050565b60805160a051610ec46101c26000396000818161018401526101fe01526000818161014a01528181610362015281816104760152818161064c01526108320152610ec46000f3fe608060405234801561001057600080fd5b506004361061009e5760003560e01c8063d02c8cdf11610066578063d02c8cdf1461016c578063dc0658831461017f578063f2fde38b146101a6578063f5a0ea6c146101b9578063feb8c438146101cc57600080fd5b80634768d4ef146100a3578063715018a6146101035780638da5cb5b1461010d57806392dc24bb14610132578063c3dfdae614610145575b600080fd5b6100ea6100b1366004610cc7565b600260208190526000918252604090912080546001820154928201546003909201546001600160a01b0391821693909116919060ff1684565b6040516100fa9493929190610cf6565b60405180910390f35b61010b6101df565b005b6000546001600160a01b03165b6040516001600160a01b0390911681526020016100fa565b61010b610140366004610d5e565b6101f3565b61011a7f000000000000000000000000000000000000000000000000000000000000000081565b61010b61017a366004610cc7565b6103dc565b61011a7f000000000000000000000000000000000000000000000000000000000000000081565b61010b6101b4366004610d8a565b6104d8565b61010b6101c7366004610dac565b61054e565b61010b6101da366004610cc7565b6106d9565b6101e76108b9565b6101f16000610913565b565b336001600160a01b037f0000000000000000000000000000000000000000000000000000000000000000161461025e5760405162461bcd60e51b815260206004820152600b60248201526a6e6f74206761746577617960a81b60448201526064015b60405180910390fd5b610266610963565b6000828152600260205260409020600160038083015460ff169081111561028f5761028f610ce0565b146102c95760405162461bcd60e51b815260206004820152600a6024820152691b9bdd081a9bda5b995960b21b6044820152606401610255565b80546001600160a01b03838116911614806102f3575060018101546001600160a01b038381169116145b6103305760405162461bcd60e51b815260206004820152600e60248201526d34b73b30b634b2103bb4b73732b960911b6044820152606401610255565b60038101805460ff19166002908117909155808201546000916103539190610dce565b90506103896001600160a01b037f00000000000000000000000000000000000000000000000000000000000000001684836109bc565b826001600160a01b0316847f15263abe612def9ba35c093a9c9cddc9144d5d09760b2d25cf8b8ace8516ebf6836040516103c591815260200190565b60405180910390a350506103d860018055565b5050565b6103e46108b9565b6103ec610963565b60008181526002602052604081209060038083015460ff169081111561041457610414610ce0565b146104515760405162461bcd60e51b815260206004820152600d60248201526c18d85b9b9bdd0818d85b98d95b609a1b6044820152606401610255565b6003818101805460ff19169091179055805460028201546104a0916001600160a01b037f00000000000000000000000000000000000000000000000000000000000000008116929116906109bc565b60405182907f700135b4fe8746e2d2c85a9baa43c62887740aebfeb3a439f71a083fe5d5675990600090a2506104d560018055565b50565b6104e06108b9565b6001600160a01b0381166105455760405162461bcd60e51b815260206004820152602660248201527f4f776e61626c653a206e6577206f776e657220697320746865207a65726f206160448201526564647265737360d01b6064820152608401610255565b6104d581610913565b610556610963565b816000036105905760405162461bcd60e51b81526020600482015260076024820152666964207a65726f60c81b6044820152606401610255565b600081116105cd5760405162461bcd60e51b815260206004820152600a6024820152697374616b65207a65726f60b01b6044820152606401610255565b60008281526002602052604081209060038083015460ff16908111156105f5576105f5610ce0565b14801561060a575080546001600160a01b0316155b61063f5760405162461bcd60e51b815260206004820152600660248201526565786973747360d01b6044820152606401610255565b6106746001600160a01b037f000000000000000000000000000000000000000000000000000000000000000016333085610a24565b8054336001600160a01b0319909116811782556002820183905560038201805460ff1916905560405183815284907fd54e72c7c537da5aba0c3d338b5fcbe4ee8d6e4dce121c81c8c57aa13e5c6d649060200160405180910390a3506103d860018055565b6106e1610963565b600081815260026020526040902080546001600160a01b03166107315760405162461bcd60e51b81526020600482015260086024820152670dcde40dac2e8c6d60c31b6044820152606401610255565b600060038083015460ff169081111561074c5761074c610ce0565b146107845760405162461bcd60e51b81526020600482015260086024820152673737ba1037b832b760c11b6044820152606401610255565b80546001600160a01b031633036107d35760405162461bcd60e51b815260206004820152601360248201527231b932b0ba37b91031b0b73737ba103537b4b760691b6044820152606401610255565b60018101546001600160a01b03161561081f5760405162461bcd60e51b815260206004820152600e60248201526d185b1c9958591e481a9bda5b995960921b6044820152606401610255565b600281015461085c906001600160a01b037f0000000000000000000000000000000000000000000000000000000000000000169033903090610a24565b600180820180546001600160a01b0319163317905560038201805460ff191682800217905550604051339083907f50d6e5d288766a7340b6110b6738cac822c48c128a47399df2fad303041f8d5090600090a3506104d560018055565b6000546001600160a01b031633146101f15760405162461bcd60e51b815260206004820181905260248201527f4f776e61626c653a2063616c6c6572206973206e6f7420746865206f776e65726044820152606401610255565b600080546001600160a01b038381166001600160a01b0319831681178455604051919092169283917f8be0079c531659141344cd1fd0a4f28419497f9722a3daafe3b4186f6b6457e09190a35050565b6002600154036109b55760405162461bcd60e51b815260206004820152601f60248201527f5265656e7472616e637947756172643a207265656e7472616e742063616c6c006044820152606401610255565b6002600155565b6040516001600160a01b038316602482015260448101829052610a1f90849063a9059cbb60e01b906064015b60408051601f198184030181529190526020810180516001600160e01b03166001600160e01b031990931692909217909152610a62565b505050565b6040516001600160a01b0380851660248301528316604482015260648101829052610a5c9085906323b872dd60e01b906084016109e8565b50505050565b6000610ab7826040518060400160405280602081526020017f5361666545524332303a206c6f772d6c6576656c2063616c6c206661696c6564815250856001600160a01b0316610b379092919063ffffffff16565b9050805160001480610ad8575080806020019051810190610ad89190610df9565b610a1f5760405162461bcd60e51b815260206004820152602a60248201527f5361666545524332303a204552433230206f7065726174696f6e20646964206e6044820152691bdd081cdd58d8d9595960b21b6064820152608401610255565b6060610b468484600085610b4e565b949350505050565b606082471015610baf5760405162461bcd60e51b815260206004820152602660248201527f416464726573733a20696e73756666696369656e742062616c616e636520666f6044820152651c8818d85b1b60d21b6064820152608401610255565b600080866001600160a01b03168587604051610bcb9190610e3f565b60006040518083038185875af1925050503d8060008114610c08576040519150601f19603f3d011682016040523d82523d6000602084013e610c0d565b606091505b5091509150610c1e87838387610c29565b979650505050505050565b60608315610c98578251600003610c91576001600160a01b0385163b610c915760405162461bcd60e51b815260206004820152601d60248201527f416464726573733a2063616c6c20746f206e6f6e2d636f6e74726163740000006044820152606401610255565b5081610b46565b610b468383815115610cad5781518083602001fd5b8060405162461bcd60e51b81526004016102559190610e5b565b600060208284031215610cd957600080fd5b5035919050565b634e487b7160e01b600052602160045260246000fd5b6001600160a01b03858116825284166020820152604081018390526080810160048310610d3357634e487b7160e01b600052602160045260246000fd5b82606083015295945050505050565b80356001600160a01b0381168114610d5957600080fd5b919050565b60008060408385031215610d7157600080fd5b82359150610d8160208401610d42565b90509250929050565b600060208284031215610d9c57600080fd5b610da582610d42565b9392505050565b60008060408385031215610dbf57600080fd5b50508035926020909101359150565b8082028115828204841417610df357634e487b7160e01b600052601160045260246000fd5b92915050565b600060208284031215610e0b57600080fd5b81518015158114610da557600080fd5b60005b83811015610e36578181015183820152602001610e1e565b50506000910152565b60008251610e51818460208701610e1b565b9190910192915050565b6020815260008251806020840152610e7a816040850160208701610e1b565b601f01601f1916919091016040019291505056fea26469706673582212203c15d623571175de67cadb002288b77ba217334744693f59ca7330f3bfa8422a64736f6c63430008130033","opcodes":"PUSH1 0xC0 PUSH1 0x40 MSTORE CALLVALUE DUP1 ISZERO PUSH2 0x10 JUMPI PUSH1 0x0 DUP1 REVERT JUMPDEST POP PUSH1 0x40 MLOAD PUSH2 0x1086 CODESIZE SUB DUP1 PUSH2 0x1086 DUP4 CODECOPY DUP2 ADD PUSH1 0x40 DUP2 SWAP1 MSTORE PUSH2 0x2F SWAP2 PUSH2 0x140 JUMP JUMPDEST PUSH2 0x38 CALLER PUSH2 0xD8 JUMP JUMPDEST PUSH1 0x1 DUP1 SSTORE PUSH1 0x1 PUSH1 0x1 PUSH1 0xA0 SHL SUB DUP3 AND PUSH2 0x81 JUMPI PUSH1 0x40 MLOAD PUSH3 0x461BCD PUSH1 0xE5 SHL DUP2 MSTORE PUSH1 0x20 PUSH1 0x4 DUP3 ADD MSTORE PUSH1 0x7 PUSH1 0x24 DUP3 ADD MSTORE PUSH7 0x6774207A65726F PUSH1 0xC8 SHL PUSH1 0x44 DUP3 ADD MSTORE PUSH1 0x64 ADD JUMPDEST PUSH1 0x40 MLOAD DUP1 SWAP2 SUB SWAP1 REVERT JUMPDEST PUSH1 0x1 PUSH1 0x1 PUSH1 0xA0 SHL SUB DUP2 AND PUSH2 0xC1 JUMPI PUSH1 0x40 MLOAD PUSH3 0x461BCD PUSH1 0xE5 SHL DUP2 MSTORE PUSH1 0x20 PUSH1 0x4 DUP3 ADD MSTORE PUSH1 0x7 PUSH1 0x24 DUP3 ADD MSTORE PUSH7 0x6777207A65726F PUSH1 0xC8 SHL PUSH1 0x44 DUP3 ADD MSTORE PUSH1 0x64 ADD PUSH2 0x78 JUMP JUMPDEST PUSH1 0x1 PUSH1 0x1 PUSH1 0xA0 SHL SUB SWAP2 DUP3 AND PUSH1 0x80 MSTORE AND PUSH1 0xA0 MSTORE PUSH2 0x17A JUMP JUMPDEST PUSH1 0x0 DUP1 SLOAD PUSH1 0x1 PUSH1 0x1 PUSH1 0xA0 SHL SUB DUP4 DUP2 AND PUSH1 0x1 PUSH1 0x1 PUSH1 0xA0 SHL SUB NOT DUP4 AND DUP2 OR DUP5 SSTORE PUSH1 0x40 MLOAD SWAP2 SWAP1 SWAP3 AND SWAP3 DUP4 SWAP2 PUSH32 0x8BE0079C531659141344CD1FD0A4F28419497F9722A3DAAFE3B4186F6B6457E0 SWAP2 SWAP1 LOG3 POP POP JUMP JUMPDEST PUSH1 0x1 PUSH1 0x1 PUSH1 0xA0 SHL SUB DUP2 AND DUP2 EQ PUSH2 0x13D JUMPI PUSH1 0x0 DUP1 REVERT JUMPDEST POP JUMP JUMPDEST PUSH1 0x0 DUP1 PUSH1 0x40 DUP4 DUP6 SUB SLT ISZERO PUSH2 0x153 JUMPI PUSH1 0x0 DUP1 REVERT JUMPDEST DUP3 MLOAD PUSH2 0x15E DUP2 PUSH2 0x128 JUMP JUMPDEST PUSH1 0x20 DUP5 ADD MLOAD SWAP1 SWAP3 POP PUSH2 0x16F DUP2 PUSH2 0x128 JUMP JUMPDEST DUP1 SWAP2 POP POP SWAP3 POP SWAP3 SWAP1 POP JUMP JUMPDEST PUSH1 0x80 MLOAD PUSH1 0xA0 MLOAD PUSH2 0xEC4 PUSH2 0x1C2 PUSH1 0x0 CODECOPY PUSH1 0x0 DUP2 DUP2 PUSH2 0x184 ADD MSTORE PUSH2 0x1FE ADD MSTORE PUSH1 0x0 DUP2 DUP2 PUSH2 0x14A ADD MSTORE DUP2 DUP2 PUSH2 0x362 ADD MSTORE DUP2 DUP2 PUSH2 0x476 ADD MSTORE DUP2 DUP2 PUSH2 0x64C ADD MSTORE PUSH2 0x832 ADD MSTORE PUSH2 0xEC4 PUSH1 0x0 RETURN INVALID PUSH1 0x80 PUSH1 0x40 MSTORE CALLVALUE DUP1 ISZERO PUSH2 0x10 JUMPI PUSH1 0x0 DUP1 REVERT JUMPDEST POP PUSH1 0x4 CALLDATASIZE LT PUSH2 0x9E JUMPI PUSH1 0x0 CALLDATALOAD PUSH1 0xE0 SHR DUP1 PUSH4 0xD02C8CDF GT PUSH2 0x66 JUMPI DUP1 PUSH4 0xD02C8CDF EQ PUSH2 0x16C JUMPI DUP1 PUSH4 0xDC065883 EQ PUSH2 0x17F JUMPI DUP1 PUSH4 0xF2FDE38B EQ PUSH2 0x1A6 JUMPI DUP1 PUSH4 0xF5A0EA6C EQ PUSH2 0x1B9 JUMPI DUP1 PUSH4 0xFEB8C438 EQ PUSH2 0x1CC JUMPI PUSH1 0x0 DUP1 REVERT JUMPDEST DUP1 PUSH4 0x4768D4EF EQ PUSH2 0xA3 JUMPI DUP1 PUSH4 0x715018A6 EQ PUSH2 0x103 JUMPI DUP1 PUSH4 0x8DA5CB5B EQ PUSH2 0x10D JUMPI DUP1 PUSH4 0x92DC24BB EQ PUSH2 0x132 JUMPI DUP1 PUSH4 0xC3DFDAE6 EQ PUSH2 0x145 JUMPI JUMPDEST PUSH1 0x0 DUP1 REVERT JUMPDEST PUSH2 0xEA PUSH2 0xB1 CALLDATASIZE PUSH1 0x4 PUSH2 0xCC7 JUMP JUMPDEST PUSH1 0x2 PUSH1 0x20 DUP2 SWAP1 MSTORE PUSH1 0x0 SWAP2 DUP3 MSTORE PUSH1 0x40 SWAP1 SWAP2 KECCAK256 DUP1 SLOAD PUSH1 0x1 DUP3 ADD SLOAD SWAP3 DUP3 ADD SLOAD PUSH1 0x3 SWAP1 SWAP3 ADD SLOAD PUSH1 0x1 PUSH1 0x1 PUSH1 0xA0 SHL SUB SWAP2 DUP3 AND SWAP4 SWAP1 SWAP2 AND SWAP2 SWAP1 PUSH1 0xFF AND DUP5 JUMP JUMPDEST PUSH1 0x40 MLOAD PUSH2 0xFA SWAP5 SWAP4 SWAP3 SWAP2 SWAP1 PUSH2 0xCF6 JUMP JUMPDEST PUSH1 0x40 MLOAD DUP1 SWAP2 SUB SWAP1 RETURN JUMPDEST PUSH2 0x10B PUSH2 0x1DF JUMP JUMPDEST STOP JUMPDEST PUSH1 0x0 SLOAD PUSH1 0x1 PUSH1 0x1 PUSH1 0xA0 SHL SUB AND JUMPDEST PUSH1 0x40 MLOAD PUSH1 0x1 PUSH1 0x1 PUSH1 0xA0 SHL SUB SWAP1 SWAP2 AND DUP2 MSTORE PUSH1 0x20 ADD PUSH2 0xFA JUMP JUMPDEST PUSH2 0x10B PUSH2 0x140 CALLDATASIZE PUSH1 0x4 PUSH2 0xD5E JUMP JUMPDEST PUSH2 0x1F3 JUMP JUMPDEST PUSH2 0x11A PUSH32 0x0 DUP2 JUMP JUMPDEST PUSH2 0x10B PUSH2 0x17A CALLDATASIZE PUSH1 0x4 PUSH2 0xCC7 JUMP JUMPDEST PUSH2 0x3DC JUMP JUMPDEST PUSH2 0x11A PUSH32 0x0 DUP2 JUMP JUMPDEST PUSH2 0x10B PUSH2 0x1B4 CALLDATASIZE PUSH1 0x4 PUSH2 0xD8A JUMP JUMPDEST PUSH2 0x4D8 JUMP JUMPDEST PUSH2 0x10B PUSH2 0x1C7 CALLDATASIZE PUSH1 0x4 PUSH2 0xDAC JUMP JUMPDEST PUSH2 0x54E JUMP JUMPDEST PUSH2 0x10B PUSH2 0x1DA CALLDATASIZE PUSH1 0x4 PUSH2 0xCC7 JUMP JUMPDEST PUSH2 0x6D9 JUMP JUMPDEST PUSH2 0x1E7 PUSH2 0x8B9 JUMP JUMPDEST PUSH2 0x1F1 PUSH1 0x0 PUSH2 0x913 JUMP JUMPDEST JUMP JUMPDEST CALLER PUSH1 0x1 PUSH1 0x1 PUSH1 0xA0 SHL SUB PUSH32 0x0 AND EQ PUSH2 0x25E JUMPI PUSH1 0x40 MLOAD PUSH3 0x461BCD PUSH1 0xE5 SHL DUP2 MSTORE PUSH1 0x20 PUSH1 0x4 DUP3 ADD MSTORE PUSH1 0xB PUSH1 0x24 DUP3 ADD MSTORE PUSH11 0x6E6F742067617465776179 PUSH1 0xA8 SHL PUSH1 0x44 DUP3 ADD MSTORE PUSH1 0x64 ADD JUMPDEST PUSH1 0x40 MLOAD DUP1 SWAP2 SUB SWAP1 REVERT JUMPDEST PUSH2 0x266 PUSH2 0x963 JUMP JUMPDEST PUSH1 0x0 DUP3 DUP2 MSTORE PUSH1 0x2 PUSH1 0x20 MSTORE PUSH1 0x40 SWAP1 KECCAK256 PUSH1 0x1 PUSH1 0x3 DUP1 DUP4 ADD SLOAD PUSH1 0xFF AND SWAP1 DUP2 GT ISZERO PUSH2 0x28F JUMPI PUSH2 0x28F PUSH2 0xCE0 JUMP JUMPDEST EQ PUSH2 0x2C9 JUMPI PUSH1 0x40 MLOAD PUSH3 0x461BCD PUSH1 0xE5 SHL DUP2 MSTORE PUSH1 0x20 PUSH1 0x4 DUP3 ADD MSTORE PUSH1 0xA PUSH1 0x24 DUP3 ADD MSTORE PUSH10 0x1B9BDD081A9BDA5B9959 PUSH1 0xB2 SHL PUSH1 0x44 DUP3 ADD MSTORE PUSH1 0x64 ADD PUSH2 0x255 JUMP JUMPDEST DUP1 SLOAD PUSH1 0x1 PUSH1 0x1 PUSH1 0xA0 SHL SUB DUP4 DUP2 AND SWAP2 AND EQ DUP1 PUSH2 0x2F3 JUMPI POP PUSH1 0x1 DUP2 ADD SLOAD PUSH1 0x1 PUSH1 0x1 PUSH1 0xA0 SHL SUB DUP4 DUP2 AND SWAP2 AND EQ JUMPDEST PUSH2 0x330 JUMPI PUSH1 0x40 MLOAD PUSH3 0x461BCD PUSH1 0xE5 SHL DUP2 MSTORE PUSH1 0x20 PUSH1 0x4 DUP3 ADD MSTORE PUSH1 0xE PUSH1 0x24 DUP3 ADD MSTORE PUSH14 0x34B73B30B634B2103BB4B73732B9 PUSH1 0x91 SHL PUSH1 0x44 DUP3 ADD MSTORE PUSH1 0x64 ADD PUSH2 0x255 JUMP JUMPDEST PUSH1 0x3 DUP2 ADD DUP1 SLOAD PUSH1 0xFF NOT AND PUSH1 0x2 SWAP1 DUP2 OR SWAP1 SWAP2 SSTORE DUP1 DUP3 ADD SLOAD PUSH1 0x0 SWAP2 PUSH2 0x353 SWAP2 SWAP1 PUSH2 0xDCE JUMP JUMPDEST SWAP1 POP PUSH2 0x389 PUSH1 0x1 PUSH1 0x1 PUSH1 0xA0 SHL SUB PUSH32 0x0 AND DUP5 DUP4 PUSH2 0x9BC JUMP JUMPDEST DUP3 PUSH1 0x1 PUSH1 0x1 PUSH1 0xA0 SHL SUB AND DUP5 PUSH32 0x15263ABE612DEF9BA35C093A9C9CDDC9144D5D09760B2D25CF8B8ACE8516EBF6 DUP4 PUSH1 0x40 MLOAD PUSH2 0x3C5 SWAP2 DUP2 MSTORE PUSH1 0x20 ADD SWAP1 JUMP JUMPDEST PUSH1 0x40 MLOAD DUP1 SWAP2 SUB SWAP1 LOG3 POP POP PUSH2 0x3D8 PUSH1 0x1 DUP1 SSTORE JUMP JUMPDEST POP POP JUMP JUMPDEST PUSH2 0x3E4 PUSH2 0x8B9 JUMP JUMPDEST PUSH2 0x3EC PUSH2 0x963 JUMP JUMPDEST PUSH1 0x0 DUP2 DUP2 MSTORE PUSH1 0x2 PUSH1 0x20 MSTORE PUSH1 0x40 DUP2 KECCAK256 SWAP1 PUSH1 0x3 DUP1 DUP4 ADD SLOAD PUSH1 0xFF AND SWAP1 DUP2 GT ISZERO PUSH2 0x414 JUMPI PUSH2 0x414 PUSH2 0xCE0 JUMP JUMPDEST EQ PUSH2 0x451 JUMPI PUSH1 0x40 MLOAD PUSH3 0x461BCD PUSH1 0xE5 SHL DUP2 MSTORE PUSH1 0x20 PUSH1 0x4 DUP3 ADD MSTORE PUSH1 0xD PUSH1 0x24 DUP3 ADD MSTORE PUSH13 0x18D85B9B9BDD0818D85B98D95B PUSH1 0x9A SHL PUSH1 0x44 DUP3 ADD MSTORE PUSH1 0x64 ADD PUSH2 0x255 JUMP JUMPDEST PUSH1 0x3 DUP2 DUP2 ADD DUP1 SLOAD PUSH1 0xFF NOT AND SWAP1 SWAP2 OR SWAP1 SSTORE DUP1 SLOAD PUSH1 0x2 DUP3 ADD SLOAD PUSH2 0x4A0 SWAP2 PUSH1 0x1 PUSH1 0x1 PUSH1 0xA0 SHL SUB PUSH32 0x0 DUP2 AND SWAP3 SWAP2 AND SWAP1 PUSH2 0x9BC JUMP JUMPDEST PUSH1 0x40 MLOAD DUP3 SWAP1 PUSH32 0x700135B4FE8746E2D2C85A9BAA43C62887740AEBFEB3A439F71A083FE5D56759 SWAP1 PUSH1 0x0 SWAP1 LOG2 POP PUSH2 0x4D5 PUSH1 0x1 DUP1 SSTORE JUMP JUMPDEST POP JUMP JUMPDEST PUSH2 0x4E0 PUSH2 0x8B9 JUMP JUMPDEST PUSH1 0x1 PUSH1 0x1 PUSH1 0xA0 SHL SUB DUP2 AND PUSH2 0x545 JUMPI PUSH1 0x40 MLOAD PUSH3 0x461BCD PUSH1 0xE5 SHL DUP2 MSTORE PUSH1 0x20 PUSH1 0x4 DUP3 ADD MSTORE PUSH1 0x26 PUSH1 0x24 DUP3 ADD MSTORE PUSH32 0x4F776E61626C653A206E6577206F776E657220697320746865207A65726F2061 PUSH1 0x44 DUP3 ADD MSTORE PUSH6 0x646472657373 PUSH1 0xD0 SHL PUSH1 0x64 DUP3 ADD MSTORE PUSH1 0x84 ADD PUSH2 0x255 JUMP JUMPDEST PUSH2 0x4D5 DUP2 PUSH2 0x913 JUMP JUMPDEST PUSH2 0x556 PUSH2 0x963 JUMP JUMPDEST DUP2 PUSH1 0x0 SUB PUSH2 0x590 JUMPI PUSH1 0x40 MLOAD PUSH3 0x461BCD PUSH1 0xE5 SHL DUP2 MSTORE PUSH1 0x20 PUSH1 0x4 DUP3 ADD MSTORE PUSH1 0x7 PUSH1 0x24 DUP3 ADD MSTORE PUSH7 0x6964207A65726F PUSH1 0xC8 SHL PUSH1 0x44 DUP3 ADD MSTORE PUSH1 0x64 ADD PUSH2 0x255 JUMP JUMPDEST PUSH1 0x0 DUP2 GT PUSH2 0x5CD JUMPI PUSH1 0x40 MLOAD PUSH3 0x461BCD PUSH1 0xE5 SHL DUP2 MSTORE PUSH1 0x20 PUSH1 0x4 DUP3 ADD MSTORE PUSH1 0xA PUSH1 0x24 DUP3 ADD MSTORE PUSH10 0x7374616B65207A65726F PUSH1 0xB0 SHL PUSH1 0x44 DUP3 ADD MSTORE PUSH1 0x64 ADD PUSH2 0x255 JUMP JUMPDEST PUSH1 0x0 DUP3 DUP2 MSTORE PUSH1 0x2 PUSH1 0x20 MSTORE PUSH1 0x40 DUP2 KECCAK256 SWAP1 PUSH1 0x3 DUP1 DUP4 ADD SLOAD PUSH1 0xFF AND SWAP1 DUP2 GT ISZERO PUSH2 0x5F5 JUMPI PUSH2 0x5F5 PUSH2 0xCE0 JUMP JUMPDEST EQ DUP1 ISZERO PUSH2 0x60A JUMPI POP DUP1 SLOAD PUSH1 0x1 PUSH1 0x1 PUSH1 0xA0 SHL SUB AND ISZERO JUMPDEST PUSH2 0x63F JUMPI PUSH1 0x40 MLOAD PUSH3 0x461BCD PUSH1 0xE5 SHL DUP2 MSTORE PUSH1 0x20 PUSH1 0x4 DUP3 ADD MSTORE PUSH1 0x6 PUSH1 0x24 DUP3 ADD MSTORE PUSH6 0x657869737473 PUSH1 0xD0 SHL PUSH1 0x44 DUP3 ADD MSTORE PUSH1 0x64 ADD PUSH2 0x255 JUMP JUMPDEST PUSH2 0x674 PUSH1 0x1 PUSH1 0x1 PUSH1 0xA0 SHL SUB PUSH32 0x0 AND CALLER ADDRESS DUP6 PUSH2 0xA24 JUMP JUMPDEST DUP1 SLOAD CALLER PUSH1 0x1 PUSH1 0x1 PUSH1 0xA0 SHL SUB NOT SWAP1 SWAP2 AND DUP2 OR DUP3 SSTORE PUSH1 0x2 DUP3 ADD DUP4 SWAP1 SSTORE PUSH1 0x3 DUP3 ADD DUP1 SLOAD PUSH1 0xFF NOT AND SWAP1 SSTORE PUSH1 0x40 MLOAD DUP4 DUP2 MSTORE DUP5 SWAP1 PUSH32 0xD54E72C7C537DA5ABA0C3D338B5FCBE4EE8D6E4DCE121C81C8C57AA13E5C6D64 SWAP1 PUSH1 0x20 ADD PUSH1 0x40 MLOAD DUP1 SWAP2 SUB SWAP1 LOG3 POP PUSH2 0x3D8 PUSH1 0x1 DUP1 SSTORE JUMP JUMPDEST PUSH2 0x6E1 PUSH2 0x963 JUMP JUMPDEST PUSH1 0x0 DUP2 DUP2 MSTORE PUSH1 0x2 PUSH1 0x20 MSTORE PUSH1 0x40 SWAP1 KECCAK256 DUP1 SLOAD PUSH1 0x1 PUSH1 0x1 PUSH1 0xA0 SHL SUB AND PUSH2 0x731 JUMPI PUSH1 0x40 MLOAD PUSH3 0x461BCD PUSH1 0xE5 SHL DUP2 MSTORE PUSH1 0x20 PUSH1 0x4 DUP3 ADD MSTORE PUSH1 0x8 PUSH1 0x24 DUP3 ADD MSTORE PUSH8 0xDCDE40DAC2E8C6D PUSH1 0xC3 SHL PUSH1 0x44 DUP3 ADD MSTORE PUSH1 0x64 ADD PUSH2 0x255 JUMP JUMPDEST PUSH1 0x0 PUSH1 0x3 DUP1 DUP4 ADD SLOAD PUSH1 0xFF AND SWAP1 DUP2 GT ISZERO PUSH2 0x74C JUMPI PUSH2 0x74C PUSH2 0xCE0 JUMP JUMPDEST EQ PUSH2 0x784 JUMPI PUSH1 0x40 MLOAD PUSH3 0x461BCD PUSH1 0xE5 SHL DUP2 MSTORE PUSH1 0x20 PUSH1 0x4 DUP3 ADD MSTORE PUSH1 0x8 PUSH1 0x24 DUP3 ADD MSTORE PUSH8 0x3737BA1037B832B7 PUSH1 0xC1 SHL PUSH1 0x44 DUP3 ADD MSTORE PUSH1 0x64 ADD PUSH2 0x255 JUMP JUMPDEST DUP1 SLOAD PUSH1 0x1 PUSH1 0x1 PUSH1 0xA0 SHL SUB AND CALLER SUB PUSH2 0x7D3 JUMPI PUSH1 0x40 MLOAD PUSH3 0x461BCD PUSH1 0xE5 SHL DUP2 MSTORE PUSH1 0x20 PUSH1 0x4 DUP3 ADD MSTORE PUSH1 0x13 PUSH1 0x24 DUP3 ADD MSTORE PUSH19 0x31B932B0BA37B91031B0B73737BA103537B4B7 PUSH1 0x69 SHL PUSH1 0x44 DUP3 ADD MSTORE PUSH1 0x64 ADD PUSH2 0x255 JUMP JUMPDEST PUSH1 0x1 DUP2 ADD SLOAD PUSH1 0x1 PUSH1 0x1 PUSH1 0xA0 SHL SUB AND ISZERO PUSH2 0x81F JUMPI PUSH1 0x40 MLOAD PUSH3 0x461BCD PUSH1 0xE5 SHL DUP2 MSTORE PUSH1 0x20 PUSH1 0x4 DUP3 ADD MSTORE PUSH1 0xE PUSH1 0x24 DUP3 ADD MSTORE PUSH14 0x185B1C9958591E481A9BDA5B9959 PUSH1 0x92 SHL PUSH1 0x44 DUP3 ADD MSTORE PUSH1 0x64 ADD PUSH2 0x255 JUMP JUMPDEST PUSH1 0x2 DUP2 ADD SLOAD PUSH2 0x85C SWAP1 PUSH1 0x1 PUSH1 0x1 PUSH1 0xA0 SHL SUB PUSH32 0x0 AND SWAP1 CALLER SWAP1 ADDRESS SWAP1 PUSH2 0xA24 JUMP JUMPDEST PUSH1 0x1 DUP1 DUP3 ADD DUP1 SLOAD PUSH1 0x1 PUSH1 0x1 PUSH1 0xA0 SHL SUB NOT AND CALLER OR SWAP1 SSTORE PUSH1 0x3 DUP3 ADD DUP1 SLOAD PUSH1 0xFF NOT AND DUP3 DUP1 MUL OR SWAP1 SSTORE POP PUSH1 0x40 MLOAD CALLER SWAP1 DUP4 SWAP1 PUSH32 0x50D6E5D288766A7340B6110B6738CAC822C48C128A47399DF2FAD303041F8D50 SWAP1 PUSH1 0x0 SWAP1 LOG3 POP PUSH2 0x4D5 PUSH1 0x1 DUP1 SSTORE JUMP JUMPDEST PUSH1 0x0 SLOAD PUSH1 0x1 PUSH1 0x1 PUSH1 0xA0 SHL SUB AND CALLER EQ PUSH2 0x1F1 JUMPI PUSH1 0x40 MLOAD PUSH3 0x461BCD PUSH1 0xE5 SHL DUP2 MSTORE PUSH1 0x20 PUSH1 0x4 DUP3 ADD DUP2 SWAP1 MSTORE PUSH1 0x24 DUP3 ADD MSTORE PUSH32 0x4F776E61626C653A2063616C6C6572206973206E6F7420746865206F776E6572 PUSH1 0x44 DUP3 ADD MSTORE PUSH1 0x64 ADD PUSH2 0x255 JUMP JUMPDEST PUSH1 0x0 DUP1 SLOAD PUSH1 0x1 PUSH1 0x1 PUSH1 0xA0 SHL SUB DUP4 DUP2 AND PUSH1 0x1 PUSH1 0x1 PUSH1 0xA0 SHL SUB NOT DUP4 AND DUP2 OR DUP5 SSTORE PUSH1 0x40 MLOAD SWAP2 SWAP1 SWAP3 AND SWAP3 DUP4 SWAP2 PUSH32 0x8BE0079C531659141344CD1FD0A4F28419497F9722A3DAAFE3B4186F6B6457E0 SWAP2 SWAP1 LOG3 POP POP JUMP JUMPDEST PUSH1 0x2 PUSH1 0x1 SLOAD SUB PUSH2 0x9B5 JUMPI PUSH1 0x40 MLOAD PUSH3 0x461BCD PUSH1 0xE5 SHL DUP2 MSTORE PUSH1 0x20 PUSH1 0x4 DUP3 ADD MSTORE PUSH1 0x1F PUSH1 0x24 DUP3 ADD MSTORE PUSH32 0x5265656E7472616E637947756172643A207265656E7472616E742063616C6C00 PUSH1 0x44 DUP3 ADD MSTORE PUSH1 0x64 ADD PUSH2 0x255 JUMP JUMPDEST PUSH1 0x2 PUSH1 0x1 SSTORE JUMP JUMPDEST PUSH1 0x40 MLOAD PUSH1 0x1 PUSH1 0x1 PUSH1 0xA0 SHL SUB DUP4 AND PUSH1 0x24 DUP3 ADD MSTORE PUSH1 0x44 DUP2 ADD DUP3 SWAP1 MSTORE PUSH2 0xA1F SWAP1 DUP5 SWAP1 PUSH4 0xA9059CBB PUSH1 0xE0 SHL SWAP1 PUSH1 0x64 ADD JUMPDEST PUSH1 0x40 DUP1 MLOAD PUSH1 0x1F NOT DUP2 DUP5 SUB ADD DUP2 MSTORE SWAP2 SWAP1 MSTORE PUSH1 0x20 DUP2 ADD DUP1 MLOAD PUSH1 0x1 PUSH1 0x1 PUSH1 0xE0 SHL SUB AND PUSH1 0x1 PUSH1 0x1 PUSH1 0xE0 SHL SUB NOT SWAP1 SWAP4 AND SWAP3 SWAP1 SWAP3 OR SWAP1 SWAP2 MSTORE PUSH2 0xA62 JUMP JUMPDEST POP POP POP JUMP JUMPDEST PUSH1 0x40 MLOAD PUSH1 0x1 PUSH1 0x1 PUSH1 0xA0 SHL SUB DUP1 DUP6 AND PUSH1 0x24 DUP4 ADD MSTORE DUP4 AND PUSH1 0x44 DUP3 ADD MSTORE PUSH1 0x64 DUP2 ADD DUP3 SWAP1 MSTORE PUSH2 0xA5C SWAP1 DUP6 SWAP1 PUSH4 0x23B872DD PUSH1 0xE0 SHL SWAP1 PUSH1 0x84 ADD PUSH2 0x9E8 JUMP JUMPDEST POP POP POP POP JUMP JUMPDEST PUSH1 0x0 PUSH2 0xAB7 DUP3 PUSH1 0x40 MLOAD DUP1 PUSH1 0x40 ADD PUSH1 0x40 MSTORE DUP1 PUSH1 0x20 DUP2 MSTORE PUSH1 0x20 ADD PUSH32 0x5361666545524332303A206C6F772D6C6576656C2063616C6C206661696C6564 DUP2 MSTORE POP DUP6 PUSH1 0x1 PUSH1 0x1 PUSH1 0xA0 SHL SUB AND PUSH2 0xB37 SWAP1 SWAP3 SWAP2 SWAP1 PUSH4 0xFFFFFFFF AND JUMP JUMPDEST SWAP1 POP DUP1 MLOAD PUSH1 0x0 EQ DUP1 PUSH2 0xAD8 JUMPI POP DUP1 DUP1 PUSH1 0x20 ADD SWAP1 MLOAD DUP2 ADD SWAP1 PUSH2 0xAD8 SWAP2 SWAP1 PUSH2 0xDF9 JUMP JUMPDEST PUSH2 0xA1F JUMPI PUSH1 0x40 MLOAD PUSH3 0x461BCD PUSH1 0xE5 SHL DUP2 MSTORE PUSH1 0x20 PUSH1 0x4 DUP3 ADD MSTORE PUSH1 0x2A PUSH1 0x24 DUP3 ADD MSTORE PUSH32 0x5361666545524332303A204552433230206F7065726174696F6E20646964206E PUSH1 0x44 DUP3 ADD MSTORE PUSH10 0x1BDD081CDD58D8D95959 PUSH1 0xB2 SHL PUSH1 0x64 DUP3 ADD MSTORE PUSH1 0x84 ADD PUSH2 0x255 JUMP JUMPDEST PUSH1 0x60 PUSH2 0xB46 DUP5 DUP5 PUSH1 0x0 DUP6 PUSH2 0xB4E JUMP JUMPDEST SWAP5 SWAP4 POP POP POP POP JUMP JUMPDEST PUSH1 0x60 DUP3 SELFBALANCE LT ISZERO PUSH2 0xBAF JUMPI PUSH1 0x40 MLOAD PUSH3 0x461BCD PUSH1 0xE5 SHL DUP2 MSTORE PUSH1 0x20 PUSH1 0x4 DUP3 ADD MSTORE PUSH1 0x26 PUSH1 0x24 DUP3 ADD MSTORE PUSH32 0x416464726573733A20696E73756666696369656E742062616C616E636520666F PUSH1 0x44 DUP3 ADD MSTORE PUSH6 0x1C8818D85B1B PUSH1 0xD2 SHL PUSH1 0x64 DUP3 ADD MSTORE PUSH1 0x84 ADD PUSH2 0x255 JUMP JUMPDEST PUSH1 0x0 DUP1 DUP7 PUSH1 0x1 PUSH1 0x1 PUSH1 0xA0 SHL SUB AND DUP6 DUP8 PUSH1 0x40 MLOAD PUSH2 0xBCB SWAP2 SWAP1 PUSH2 0xE3F JUMP JUMPDEST PUSH1 0x0 PUSH1 0x40 MLOAD DUP1 DUP4 SUB DUP2 DUP6 DUP8 GAS CALL SWAP3 POP POP POP RETURNDATASIZE DUP1 PUSH1 0x0 DUP2 EQ PUSH2 0xC08 JUMPI PUSH1 0x40 MLOAD SWAP2 POP PUSH1 0x1F NOT PUSH1 0x3F RETURNDATASIZE ADD AND DUP3 ADD PUSH1 0x40 MSTORE RETURNDATASIZE DUP3 MSTORE RETURNDATASIZE PUSH1 0x0 PUSH1 0x20 DUP5 ADD RETURNDATACOPY PUSH2 0xC0D JUMP JUMPDEST PUSH1 0x60 SWAP2 POP JUMPDEST POP SWAP2 POP SWAP2 POP PUSH2 0xC1E DUP8 DUP4 DUP4 DUP8 PUSH2 0xC29 JUMP JUMPDEST SWAP8 SWAP7 POP POP POP POP POP POP POP JUMP JUMPDEST PUSH1 0x60 DUP4 ISZERO PUSH2 0xC98 JUMPI DUP3 MLOAD PUSH1 0x0 SUB PUSH2 0xC91 JUMPI PUSH1 0x1 PUSH1 0x1 PUSH1 0xA0 SHL SUB DUP6 AND EXTCODESIZE PUSH2 0xC91 JUMPI PUSH1 0x40 MLOAD PUSH3 0x461BCD PUSH1 0xE5 SHL DUP2 MSTORE PUSH1 0x20 PUSH1 0x4 DUP3 ADD MSTORE PUSH1 0x1D PUSH1 0x24 DUP3 ADD MSTORE PUSH32 0x416464726573733A2063616C6C20746F206E6F6E2D636F6E7472616374000000 PUSH1 0x44 DUP3 ADD MSTORE PUSH1 0x64 ADD PUSH2 0x255 JUMP JUMPDEST POP DUP2 PUSH2 0xB46 JUMP JUMPDEST PUSH2 0xB46 DUP4 DUP4 DUP2 MLOAD ISZERO PUSH2 0xCAD JUMPI DUP2 MLOAD DUP1 DUP4 PUSH1 0x20 ADD REVERT JUMPDEST DUP1 PUSH1 0x40 MLOAD PUSH3 0x461BCD PUSH1 0xE5 SHL DUP2 MSTORE PUSH1 0x4 ADD PUSH2 0x255 SWAP2 SWAP1 PUSH2 0xE5B JUMP JUMPDEST PUSH1 0x0 PUSH1 0x20 DUP3 DUP5 SUB SLT ISZERO PUSH2 0xCD9 JUMPI PUSH1 0x0 DUP1 REVERT JUMPDEST POP CALLDATALOAD SWAP2 SWAP1 POP JUMP JUMPDEST PUSH4 0x4E487B71 PUSH1 0xE0 SHL PUSH1 0x0 MSTORE PUSH1 0x21 PUSH1 0x4 MSTORE PUSH1 0x24 PUSH1 0x0 REVERT JUMPDEST PUSH1 0x1 PUSH1 0x1 PUSH1 0xA0 SHL SUB DUP6 DUP2 AND DUP3 MSTORE DUP5 AND PUSH1 0x20 DUP3 ADD MSTORE PUSH1 0x40 DUP2 ADD DUP4 SWAP1 MSTORE PUSH1 0x80 DUP2 ADD PUSH1 0x4 DUP4 LT PUSH2 0xD33 JUMPI PUSH4 0x4E487B71 PUSH1 0xE0 SHL PUSH1 0x0 MSTORE PUSH1 0x21 PUSH1 0x4 MSTORE PUSH1 0x24 PUSH1 0x0 REVERT JUMPDEST DUP3 PUSH1 0x60 DUP4 ADD MSTORE SWAP6 SWAP5 POP POP POP POP POP JUMP JUMPDEST DUP1 CALLDATALOAD PUSH1 0x1 PUSH1 0x1 PUSH1 0xA0 SHL SUB DUP2 AND DUP2 EQ PUSH2 0xD59 JUMPI PUSH1 0x0 DUP1 REVERT JUMPDEST SWAP2 SWAP1 POP JUMP JUMPDEST PUSH1 0x0 DUP1 PUSH1 0x40 DUP4 DUP6 SUB SLT ISZERO PUSH2 0xD71 JUMPI PUSH1 0x0 DUP1 REVERT JUMPDEST DUP3 CALLDATALOAD SWAP2 POP PUSH2 0xD81 PUSH1 0x20 DUP5 ADD PUSH2 0xD42 JUMP JUMPDEST SWAP1 POP SWAP3 POP SWAP3 SWAP1 POP JUMP JUMPDEST PUSH1 0x0 PUSH1 0x20 DUP3 DUP5 SUB SLT ISZERO PUSH2 0xD9C JUMPI PUSH1 0x0 DUP1 REVERT JUMPDEST PUSH2 0xDA5 DUP3 PUSH2 0xD42 JUMP JUMPDEST SWAP4 SWAP3 POP POP POP JUMP JUMPDEST PUSH1 0x0 DUP1 PUSH1 0x40 DUP4 DUP6 SUB SLT ISZERO PUSH2 0xDBF JUMPI PUSH1 0x0 DUP1 REVERT JUMPDEST POP POP DUP1 CALLDATALOAD SWAP3 PUSH1 0x20 SWAP1 SWAP2 ADD CALLDATALOAD SWAP2 POP JUMP JUMPDEST DUP1 DUP3 MUL DUP2 ISZERO DUP3 DUP3 DIV DUP5 EQ OR PUSH2 0xDF3 JUMPI PUSH4 0x4E487B71 PUSH1 0xE0 SHL PUSH1 0x0 MSTORE PUSH1 0x11 PUSH1 0x4 MSTORE PUSH1 0x24 PUSH1 0x0 REVERT JUMPDEST SWAP3 SWAP2 POP POP JUMP JUMPDEST PUSH1 0x0 PUSH1 0x20 DUP3 DUP5 SUB SLT ISZERO PUSH2 0xE0B JUMPI PUSH1 0x0 DUP1 REVERT JUMPDEST DUP2 MLOAD DUP1 ISZERO ISZERO DUP2 EQ PUSH2 0xDA5 JUMPI PUSH1 0x0 DUP1 REVERT JUMPDEST PUSH1 0x0 JUMPDEST DUP4 DUP2 LT ISZERO PUSH2 0xE36 JUMPI DUP2 DUP2 ADD MLOAD DUP4 DUP3 ADD MSTORE PUSH1 0x20 ADD PUSH2 0xE1E JUMP JUMPDEST POP POP PUSH1 0x0 SWAP2 ADD MSTORE JUMP JUMPDEST PUSH1 0x0 DUP3 MLOAD PUSH2 0xE51 DUP2 DUP5 PUSH1 0x20 DUP8 ADD PUSH2 0xE1B JUMP JUMPDEST SWAP2 SWAP1 SWAP2 ADD SWAP3 SWAP2 POP POP JUMP JUMPDEST PUSH1 0x20 DUP2 MSTORE PUSH1 0x0 DUP3 MLOAD DUP1 PUSH1 0x20 DUP5 ADD MSTORE PUSH2 0xE7A DUP2 PUSH1 0x40 DUP6 ADD PUSH1 0x20 DUP8 ADD PUSH2 0xE1B JUMP JUMPDEST PUSH1 0x1F ADD PUSH1 0x1F NOT AND SWAP2 SWAP1 SWAP2 ADD PUSH1 0x40 ADD SWAP3 SWAP2 POP POP JUMP INVALID LOG2 PUSH5 0x6970667358 0x22 SLT KECCAK256 EXTCODECOPY ISZERO 0xD6 0x23 JUMPI GT PUSH22 0xDE67CADB002288B77BA217334744693F59CA7330F3BF 0xA8 TIMESTAMP 0x2A PUSH5 0x736F6C6343 STOP ADDMOD SGT STOP CALLER "},"methodIdentifiers":{"apiGateway()":"dc065883","cancelMatch(uint256)":"d02c8cdf","createMatch(uint256,uint256)":"f5a0ea6c","gameToken()":"c3dfdae6","joinMatch(uint256)":"feb8c438","matches(uint256)":"4768d4ef","owner()":"8da5cb5b","renounceOwnership()":"715018a6","submitResult(uint256,address)":"92dc24bb","transferOwnership(address)":"f2fde38b"}}}}}