{
  "_format": "hh-sol-artifact-1",
  "contractName": "PlayGame",
  "sourceName": "contracts/PlayGame.sol",
  "abi": [
    {
      "inputs": [
        {
          "internalType": "contract IERC20",
          "name": "gameToken_",
          "type": "address"
        },
        {
          "internalType": "address",
          "name": "apiGateway_",
          "type": "address"
        }
      ],
      "stateMutability": "nonpayable",
      "type": "constructor"
    },
    {
      "anonymous": false,
      "inputs": [
        {
          "indexed": true,
          "internalType": "uint256",
          "name": "matchId",
          "type": "uint256"
        }
      ],
      "name": "MatchCancelled",
      "type": "event"
    },
    {
      "anonymous": false,
      "inputs": [
        {
          "indexed": true,
          "internalType": "uint256",
          "name": "matchId",
          "type": "uint256"
        },
        {
          "indexed": true,
          "internalType": "address",
          "name": "player1",
          "type": "address"
        },
        {
          "indexed": false,
          "internalType": "uint256",
          "name": "stakeAmount",
          "type": "uint256"
        }
      ],
      "name": "MatchCreated",
      "type": "event"
    },
    {
      "anonymous": false,
      "inputs": [
        {
          "indexed": true,
          "internalType": "uint256",
          "name": "matchId",
          "type": "uint256"
        },
        {
          "indexed": true,
          "internalType": "address",
          "name": "player2",
          "type": "address"
        }
      ],
      "name": "MatchJoined",
      "type": "event"
    },
    {
      "anonymous": false,
      "inputs": [
        {
          "indexed": true,
          "internalType": "uint256",
          "name": "matchId",
          "type": "uint256"
        },
        {
          "indexed": true,
          "internalType": "address",
          "name": "winner",
          "type": "address"
        },
        {
          "indexed": false,
          "internalType": "uint256",
          "name": "payoutAmount",
          "type": "uint256"
        }
      ],
      "name": "MatchResolved",
      "type": "event"
    },
    {
      "anonymous": false,
      "inputs": [
        {
          "indexed": true,
          "internalType": "address",
          "name": "previousOwner",
          "type": "address"
        },
        {
          "indexed": true,
          "internalType": "address",
          "name": "newOwner",
          "type": "address"
        }
      ],
      "name": "OwnershipTransferred",
      "type": "event"
    },
    {
      "inputs": [],
      "name": "apiGateway",
      "outputs": [
        {
          "internalType": "address",
          "name": "",
          "type": "address"
        }
      ],
      "stateMutability": "view",
      "type": "function"
    },
    {
      "inputs": [
        {
          "internalType": "uint256",
          "name": "matchId",
          "type": "uint256"
        }
      ],
      "name": "cancelMatch",
      "outputs": [],
      "stateMutability": "nonpayable",
      "type": "function"
    },
    {
      "inputs": [
        {
          "internalType": "uint256",
          "name": "matchId",
          "type": "uint256"
        },
        {
          "internalType": "uint256",
          "name": "stakeAmount",
          "type": "uint256"
        }
      ],
      "name": "createMatch",
      "outputs": [],
      "stateMutability": "nonpayable",
      "type": "function"
    },
    {
      "inputs": [],
      "name": "gameToken",
      "outputs": [
        {
          "internalType": "contract IERC20",
          "name": "",
          "type": "address"
        }
      ],
      "stateMutability": "view",
      "type": "function"
    },
    {
      "inputs": [
        {
          "internalType": "uint256",
          "name": "matchId",
          "type": "uint256"
        }
      ],
      "name": "joinMatch",
      "outputs": [],
      "stateMutability": "nonpayable",
      "type": "function"
    },
    {
      "inputs": [
        {
          "internalType": "uint256",
          "name": "",
          "type": "uint256"
        }
      ],
      "name": "matches",
      "outputs": [
        {
          "internalType": "address",
          "name": "player1",
          "type": "address"
        },
        {
          "internalType": "address",
          "name": "player2",
          "type": "address"
        },
        {
          "internalType": "uint256",
          "name": "stakeAmount",
          "type": "uint256"
        },
        {
          "internalType": "enum PlayGame.MatchStatus",
          "name": "status",
          "type": "uint8"
        }
      ],
      "stateMutability": "view",
      "type": "function"
    },
    {
      "inputs": [],
      "name": "owner",
      "outputs": [
        {
          "internalType": "address",
          "name": "",
          "type": "address"
        }
      ],
      "stateMutability": "view",
      "type": "function"
    },
    {
      "inputs": [],
      "name": "renounceOwnership",
      "outputs": [],
      "stateMutability": "nonpayable",
      "type": "function"
    },
    {
      "inputs": [
        {
          "internalType": "uint256",
          "name": "matchId",
          "type": "uint256"
        },
        {
          "internalType": "address",
          "name": "winner",
          "type": "address"
        }
      ],
      "name": "submitResult",
      "outputs": [],
      "stateMutability": "nonpayable",
      "type": "function"
    },
    {
      "inputs": [
        {
          "internalType": "address",
          "name": "newOwner",
          "type": "address"
        }
      ],
      "name": "transferOwnership",
      "outputs": [],
      "stateMutability": "nonpayable",
      "type": "function"
    }
  ],
  "bytecode": "0x60c060405234801561001057600080fd5b5060405161108638038061108683398101604081905261002f91610140565b610038336100d8565b600180556001600160a01b0382166100815760405162461bcd60e51b81526020600482015260076024820152666774207a65726f60c81b60448201526064015b60405180910390fd5b6001600160a01b0381166100c15760405162461bcd60e51b81526020600482015260076024820152666777207a65726f60c81b6044820152606401610078565b6001600160a01b039182166080521660a05261017a565b600080546001600160a01b038381166001600160a01b0319831681178455604051919092169283917f8be0079c531659141344cd1fd0a4f28419497f9722a3daafe3b4186f6b6457e09190a35050565b6001600160a01b038116811461013d57600080fd5b50565b6000806040838503121561015357600080fd5b825161015e81610128565b602084015190925061016f81610128565b809150509250929050565b60805160a051610ec46101c26000396000818161018401526101fe01526000818161014a01528181610362015281816104760152818161064c01526108320152610ec46000f3fe608060405234801561001057600080fd5b506004361061009e5760003560e01c8063d02c8cdf11610066578063d02c8cdf1461016c578063dc0658831461017f578063f2fde38b146101a6578063f5a0ea6c146101b9578063feb8c438146101cc57600080fd5b80634768d4ef146100a3578063715018a6146101035780638da5cb5b1461010d57806392dc24bb14610132578063c3dfdae614610145575b600080fd5b6100ea6100b1366004610cc7565b600260208190526000918252604090912080546001820154928201546003909201546001600160a01b0391821693909116919060ff1684565b6040516100fa9493929190610cf6565b60405180910390f35b61010b6101df565b005b6000546001600160a01b03165b6040516001600160a01b0390911681526020016100fa565b61010b610140366004610d5e565b6101f3565b61011a7f000000000000000000000000000000000000000000000000000000000000000081565b61010b61017a366004610cc7565b6103dc565b61011a7f000000000000000000000000000000000000000000000000000000000000000081565b61010b6101b4366004610d8a565b6104d8565b61010b6101c7366004610dac565b61054e565b61010b6101da366004610cc7565b6106d9565b6101e76108b9565b6101f16000610913565b565b336001600160a01b037f0000000000000000000000000000000000000000000000000000000000000000161461025e5760405162461bcd60e51b815260206004820152600b60248201526a6e6f74206761746577617960a81b60448201526064015b60405180910390fd5b610266610963565b6000828152600260205260409020600160038083015460ff169081111561028f5761028f610ce0565b146102c95760405162461bcd60e51b815260206004820152600a6024820152691b9bdd081a9bda5b995960b21b6044820152606401610255565b80546001600160a01b03838116911614806102f3575060018101546001600160a01b038381169116145b6103305760405162461bcd60e51b815260206004820152600e60248201526d34b73b30b634b2103bb4b73732b960911b6044820152606401610255565b60038101805460ff19166002908117909155808201546000916103539190610dce565b90506103896001600160a01b037f00000000000000000000000000000000000000000000000000000000000000001684836109bc565b826001600160a01b0316847f15263abe612def9ba35c093a9c9cddc9144d5d09760b2d25cf8b8ace8516ebf6836040516103c591815260200190565b60405180910390a350506103d860018055565b5050565b6103e46108b9565b6103ec610963565b60008181526002602052604081209060038083015460ff169081111561041457610414610ce0565b146104515760405162461bcd60e51b815260206004820152600d60248201526c18d85b9b9bdd0818d85b98d95b609a1b6044820152606401610255565b6003818101805460ff19169091179055805460028201546104a0916001600160a01b037f00000000000000000000000000000000000000000000000000000000000000008116929116906109bc565b60405182907f700135b4fe8746e2d2c85a9baa43c62887740aebfeb3a439f71a083fe5d5675990600090a2506104d560018055565b50565b6104e06108b9565b6001600160a01b0381166105455760405162461bcd60e51b815260206004820152602660248201527f4f776e61626c653a206e6577206f776e657220697320746865207a65726f206160448201526564647265737360d01b6064820152608401610255565b6104d581610913565b610556610963565b816000036105905760405162461bcd60e51b81526020600482015260076024820152666964207a65726f60c81b6044820152606401610255565b600081116105cd5760405162461bcd60e51b815260206004820152600a6024820152697374616b65207a65726f60b01b6044820152606401610255565b60008281526002602052604081209060038083015460ff16908111156105f5576105f5610ce0565b14801561060a575080546001600160a01b0316155b61063f5760405162461bcd60e51b815260206004820152600660248201526565786973747360d01b6044820152606401610255565b6106746001600160a01b037f000000000000000000000000000000000000000000000000000000000000000016333085610a24565b8054336001600160a01b0319909116811782556002820183905560038201805460ff1916905560405183815284907fd54e72c7c537da5aba0c3d338b5fcbe4ee8d6e4dce121c81c8c57aa13e5c6d649060200160405180910390a3506103d860018055565b6106e1610963565b600081815260026020526040902080546001600160a01b03166107315760405162461bcd60e51b81526020600482015260086024820152670dcde40dac2e8c6d60c31b6044820152606401610255565b600060038083015460ff169081111561074c5761074c610ce0565b146107845760405162461bcd60e51b81526020600482015260086024820152673737ba1037b832b760c11b6044820152606401610255565b80546001600160a01b031633036107d35760405162461bcd60e51b815260206004820152601360248201527231b932b0ba37b91031b0b73737ba103537b4b760691b6044820152606401610255565b60018101546001600160a01b03161561081f5760405162461bcd60e51b815260206004820152600e60248201526d185b1c9958591e481a9bda5b995960921b6044820152606401610255565b600281015461085c906001600160a01b037f0000000000000000000000000000000000000000000000000000000000000000169033903090610a24565b600180820180546001600160a01b0319163317905560038201805460ff191682800217905550604051339083907f50d6e5d288766a7340b6110b6738cac822c48c128a47399df2fad303041f8d5090600090a3506104d560018055565b6000546001600160a01b031633146101f15760405162461bcd60e51b815260206004820181905260248201527f4f776e61626c653a2063616c6c6572206973206e6f7420746865206f776e65726044820152606401610255565b600080546001600160a01b038381166001600160a01b0319831681178455604051919092169283917f8be0079c531659141344cd1fd0a4f28419497f9722a3daafe3b4186f6b6457e09190a35050565b6002600154036109b55760405162461bcd60e51b815260206004820152601f60248201527f5265656e7472616e637947756172643a207265656e7472616e742063616c6c006044820152606401610255565b6002600155565b6040516001600160a01b038316602482015260448101829052610a1f90849063a9059cbb60e01b906064015b60408051601f198184030181529190526020810180516001600160e01b03166001600160e01b031990931692909217909152610a62565b505050565b6040516001600160a01b0380851660248301528316604482015260648101829052610a5c9085906323b872dd60e01b906084016109e8565b50505050565b6000610ab7826040518060400160405280602081526020017f5361666545524332303a206c6f772d6c6576656c2063616c6c206661696c6564815250856001600160a01b0316610b379092919063ffffffff16565b9050805160001480610ad8575080806020019051810190610ad89190610df9565b610a1f5760405162461bcd60e51b815260206004820152602a60248201527f5361666545524332303a204552433230206f7065726174696f6e20646964206e6044820152691bdd081cdd58d8d9595960b21b6064820152608401610255565b6060610b468484600085610b4e565b949350505050565b606082471015610baf5760405162461bcd60e51b815260206004820152602660248201527f416464726573733a20696e73756666696369656e742062616c616e636520666f6044820152651c8818d85b1b60d21b6064820152608401610255565b600080866001600160a01b03168587604051610bcb9190610e3f565b60006040518083038185875af1925050503d8060008114610c08576040519150601f19603f3d011682016040523d82523d6000602084013e610c0d565b606091505b5091509150610c1e87838387610c29565b979650505050505050565b60608315610c98578251600003610c91576001600160a01b0385163b610c915760405162461bcd60e51b815260206004820152601d60248201527f416464726573733a2063616c6c20746f206e6f6e2d636f6e74726163740000006044820152606401610255565b5081610b46565b610b468383815115610cad5781518083602001fd5b8060405162461bcd60e51b81526004016102559190610e5b565b600060208284031215610cd957600080fd5b5035919050565b634e487b7160e01b600052602160045260246000fd5b6001600160a01b03858116825284166020820152604081018390526080810160048310610d3357634e487b7160e01b600052602160045260246000fd5b82606083015295945050505050565b80356001600160a01b0381168114610d5957600080fd5b919050565b60008060408385031215610d7157600080fd5b82359150610d8160208401610d42565b90509250929050565b600060208284031215610d9c57600080fd5b610da582610d42565b9392505050565b60008060408385031215610dbf57600080fd5b50508035926020909101359150565b8082028115828204841417610df357634e487b7160e01b600052601160045260246000fd5b92915050565b600060208284031215610e0b57600080fd5b81518015158114610da557600080fd5b60005b83811015610e36578181015183820152602001610e1e565b50506000910152565b60008251610e51818460208701610e1b565b9190910192915050565b6020815260008251806020840152610e7a816040850160208701610e1b565b601f01601f1916919091016040019291505056fea26469706673582212203c15d623571175de67cadb002288b77ba217334744693f59ca7330f3bfa8422a64736f6c63430008130033",
  "linkReferences": {},
  "deployedLinkReferences": {}
}