{
  "_format": "hh-sol-artifact-1",
  "contractName": "TokenStore",
  "sourceName": "contracts/TokenStore.sol",
  "abi": [
    {
      "inputs": [
        {
          "internalType": "contract IERC20",
          "name": "usdt_",
          "type": "address"
        },
        {
          "internalType": "contract GameToken",
          "name": "gameToken_",
          "type": "address"
        }
      ],
      "stateMutability": "nonpayable",
      "type": "constructor"
    },
    {
      "anonymous": false,
      "inputs": [
        {
          "indexed": true,
          "internalType": "address",
          "name": "previousOwner",
          "type": "address"
        },
        {
          "indexed": true,
          "internalType": "address",
          "name": "newOwner",
          "type": "address"
        }
      ],
      "name": "OwnershipTransferred",
      "type": "event"
    },
    {
      "anonymous": false,
      "inputs": [
        {
          "indexed": true,
          "internalType": "address",
          "name": "buyer",
          "type": "address"
        },
        {
          "indexed": false,
          "internalType": "uint256",
          "name": "usdtSpent",
          "type": "uint256"
        },
        {
          "indexed": false,
          "internalType": "uint256",
          "name": "gtMinted",
          "type": "uint256"
        }
      ],
      "name": "Purchased",
      "type": "event"
    },
    {
      "anonymous": false,
      "inputs": [
        {
          "indexed": true,
          "internalType": "address",
          "name": "to",
          "type": "address"
        },
        {
          "indexed": false,
          "internalType": "uint256",
          "name": "amount",
          "type": "uint256"
        }
      ],
      "name": "Withdrawn",
      "type": "event"
    },
    {
      "inputs": [
        {
          "internalType": "uint256",
          "name": "usdtAmount",
          "type": "uint256"
        }
      ],
      "name": "buy",
      "outputs": [],
      "stateMutability": "nonpayable",
      "type": "function"
    },
    {
      "inputs": [],
      "name": "gameToken",
      "outputs": [
        {
          "internalType": "contract GameToken",
          "name": "",
          "type": "address"
        }
      ],
      "stateMutability": "view",
      "type": "function"
    },
    {
      "inputs": [],
      "name": "owner",
      "outputs": [
        {
          "internalType": "address",
          "name": "",
          "type": "address"
        }
      ],
      "stateMutability": "view",
      "type": "function"
    },
    {
      "inputs": [],
      "name": "renounceOwnership",
      "outputs": [],
      "stateMutability": "nonpayable",
      "type": "function"
    },
    {
      "inputs": [
        {
          "internalType": "address",
          "name": "newOwner",
          "type": "address"
        }
      ],
      "name": "transferOwnership",
      "outputs": [],
      "stateMutability": "nonpayable",
      "type": "function"
    },
    {
      "inputs": [],
      "name": "usdt",
      "outputs": [
        {
          "internalType": "contract IERC20",
          "name": "",
          "type": "address"
        }
      ],
      "stateMutability": "view",
      "type": "function"
    },
    {
      "inputs": [
        {
          "internalType": "uint256",
          "name": "amount",
          "type": "uint256"
        }
      ],
      "name": "withdraw",
      "outputs": [],
      "stateMutability": "nonpayable",
      "type": "function"
    }
  ],
  "bytecode": "0x60c060405234801561001057600080fd5b50604051610a53380380610a5383398101604081905261002f9161013e565b610038336100d6565b6001600160a01b03821661007f5760405162461bcd60e51b815260206004820152600960248201526875736474207a65726f60b81b60448201526064015b60405180910390fd5b6001600160a01b0381166100bf5760405162461bcd60e51b81526020600482015260076024820152666774207a65726f60c81b6044820152606401610076565b6001600160a01b039182166080521660a052610178565b600080546001600160a01b038381166001600160a01b0319831681178455604051919092169283917f8be0079c531659141344cd1fd0a4f28419497f9722a3daafe3b4186f6b6457e09190a35050565b6001600160a01b038116811461013b57600080fd5b50565b6000806040838503121561015157600080fd5b825161015c81610126565b602084015190925061016d81610126565b809150509250929050565b60805160a0516108a36101b06000396000818160f801526102c5015260008181609c015281816101aa015261028101526108a36000f3fe608060405234801561001057600080fd5b506004361061007d5760003560e01c80638da5cb5b1161005b5780638da5cb5b146100e2578063c3dfdae6146100f3578063d96a094a1461011a578063f2fde38b1461012d57600080fd5b80632e1a7d4d146100825780632f48ab7d14610097578063715018a6146100da575b600080fd5b61009561009036600461078f565b610140565b005b6100be7f000000000000000000000000000000000000000000000000000000000000000081565b6040516001600160a01b03909116815260200160405180910390f35b610095610222565b6000546001600160a01b03166100be565b6100be7f000000000000000000000000000000000000000000000000000000000000000081565b61009561012836600461078f565b610236565b61009561013b3660046107a8565b610361565b6101486103da565b6000811161018b5760405162461bcd60e51b815260206004820152600b60248201526a1e995c9bc8185b5bdd5b9d60aa1b60448201526064015b60405180910390fd5b6101d16101a06000546001600160a01b031690565b6001600160a01b037f0000000000000000000000000000000000000000000000000000000000000000169083610434565b6000546001600160a01b03166001600160a01b03167f7084f5476618d8e60b11ef0d7d3f06914655adb8793e28ff7f018d4c76d505d58260405161021791815260200190565b60405180910390a250565b61022a6103da565b610234600061049c565b565b600081116102745760405162461bcd60e51b815260206004820152600b60248201526a1e995c9bc8185b5bdd5b9d60aa1b6044820152606401610182565b6102a96001600160a01b037f0000000000000000000000000000000000000000000000000000000000000000163330846104ec565b6040516340c10f1960e01b8152336004820152602481018290527f00000000000000000000000000000000000000000000000000000000000000006001600160a01b0316906340c10f1990604401600060405180830381600087803b15801561031157600080fd5b505af1158015610325573d6000803e3d6000fd5b505060408051848152602081018590523393507ff761777482b4b40d2bcc0d050cfba6829900a2d8b3484bd0244ec0feeb3db504925001610217565b6103696103da565b6001600160a01b0381166103ce5760405162461bcd60e51b815260206004820152602660248201527f4f776e61626c653a206e6577206f776e657220697320746865207a65726f206160448201526564647265737360d01b6064820152608401610182565b6103d78161049c565b50565b6000546001600160a01b031633146102345760405162461bcd60e51b815260206004820181905260248201527f4f776e61626c653a2063616c6c6572206973206e6f7420746865206f776e65726044820152606401610182565b6040516001600160a01b03831660248201526044810182905261049790849063a9059cbb60e01b906064015b60408051601f198184030181529190526020810180516001600160e01b03166001600160e01b03199093169290921790915261052a565b505050565b600080546001600160a01b038381166001600160a01b0319831681178455604051919092169283917f8be0079c531659141344cd1fd0a4f28419497f9722a3daafe3b4186f6b6457e09190a35050565b6040516001600160a01b03808516602483015283166044820152606481018290526105249085906323b872dd60e01b90608401610460565b50505050565b600061057f826040518060400160405280602081526020017f5361666545524332303a206c6f772d6c6576656c2063616c6c206661696c6564815250856001600160a01b03166105ff9092919063ffffffff16565b90508051600014806105a05750808060200190518101906105a091906107d8565b6104975760405162461bcd60e51b815260206004820152602a60248201527f5361666545524332303a204552433230206f7065726174696f6e20646964206e6044820152691bdd081cdd58d8d9595960b21b6064820152608401610182565b606061060e8484600085610616565b949350505050565b6060824710156106775760405162461bcd60e51b815260206004820152602660248201527f416464726573733a20696e73756666696369656e742062616c616e636520666f6044820152651c8818d85b1b60d21b6064820152608401610182565b600080866001600160a01b03168587604051610693919061081e565b60006040518083038185875af1925050503d80600081146106d0576040519150601f19603f3d011682016040523d82523d6000602084013e6106d5565b606091505b50915091506106e6878383876106f1565b979650505050505050565b60608315610760578251600003610759576001600160a01b0385163b6107595760405162461bcd60e51b815260206004820152601d60248201527f416464726573733a2063616c6c20746f206e6f6e2d636f6e74726163740000006044820152606401610182565b508161060e565b61060e83838151156107755781518083602001fd5b8060405162461bcd60e51b8152600401610182919061083a565b6000602082840312156107a157600080fd5b5035919050565b6000602082840312156107ba57600080fd5b81356001600160a01b03811681146107d157600080fd5b9392505050565b6000602082840312156107ea57600080fd5b815180151581146107d157600080fd5b60005b838110156108155781810151838201526020016107fd565b50506000910152565b600082516108308184602087016107fa565b9190910192915050565b60208152600082518060208401526108598160408501602087016107fa565b601f01601f1916919091016040019291505056fea2646970667358221220bc3294999cc0df047ab72b30baae6a0d3f6fce72a54bfcc045b2eae07878505364736f6c63430008130033",
  "linkReferences": {},
  "deployedLinkReferences": {}
}